S01700004D6963726F636F6E74726F6C6572322E7372656309
S11300000C942A000C943F000C943F000C943F0085
S11300100C943F000C943F000C943F000C943F0060
S11300200C943F000C943F000C943F000C943F0050
S11300300C943F000C943F000C943F000C943F0040
S11300400C943F000C943F000C943F000C943F0030
S11300500C943F0011241FBECFE5D8E0DEBFCDBF16
S113006010E0A0E6B0E0EEEAF4E002C005900D92E4
S1130070A438B107D9F70E9408020C9455020C94D5
S1130080000040E060E083E00E944F0041E061E056
S113009083E00E944F000C944A020C9451024423C2
S11300A079F1413009F05FC0813079F028F0823075
S11300B0A9F08330E1F008952AB381E090E001C013
S11300C0880F6A95EAF7822B2CC027B381E090E071
S11300D001C0880F6A95EAF7822B2EC024B381E011
S11300E090E001C0880F6A95EAF7822B30C021B3F3
S11300F081E090E001C0880F6A95EAF7822B32C054
S1130100813089F028F08230C9F0833011F10895EC
S11301102AB381E090E001C0880F6A95EAF78095E0
S113012082238ABB089527B381E090E001C0880F41
S11301306A95EAF78095822387BB089524B381E00A
S113014090E001C0880F6A95EAF78095822384BB0A
S1130150089521B381E090E001C0880F6A95EAF721
S11301608095822381BB0895442379F1413009F0BD
S11301705FC0813079F028F08230A9F08330E1F05B
S113018008952BB381E090E001C0880F6A95EAF7E7
S1130190822B2CC028B381E090E001C0880F6A95BF
S11301A0EAF7822B2EC025B381E090E001C0880FCE
S11301B06A95EAF7822B30C022B381E090E001C057
S11301C0880F6A95EAF7822B32C0813089F028F0D3
S11301D08230C9F0833011F108952BB381E090E0AF
S11301E001C0880F6A95EAF7809582238BBB089536
S11301F028B381E090E001C0880F6A95EAF7809502
S1130200822388BB089525B381E090E001C0880F64
S11302106A95EAF78095822385BB089522B381E02D
S113022090E001C0880F6A95EAF78095822382BB2B
S11302300895CF93C82F40E061E081E00E94B400AC
S113024040E062E081E00E94B40040E063E081E0CD
S11302500E94B4008BB39C2F907F8F70892B8BBB33
S113026041E063E081E00E94B4008FEC97E00197E5
S1130270F1F700C0000040E063E081E00E94B400B8
S11302802BB330E1C39FC0011124922F9F70892B9F
S11302908BBB41E063E081E00E94B4008FEC97E007
S11302A00197F1F700C0000040E063E081E00E94A4
S11302B0B4008FE097E20197F1F700C00000CF91FE
S11302C0089541E061E081E00E944F0041E062E076
S11302D081E00E944F0041E063E081E00E944F0012
S11302E041E064E080E00E944F0041E065E080E08E
S11302F00E944F0041E066E080E00E944F0041E030
S113030067E080E00E944F002FEF80E792E02150E9
S113031080409040E1F700C0000083E30E9419018F
S113032082E30E94190188E20E9419018CE00E9474
S1130330190181E00E94190186E00E94190182E0FE
S11303400C941901CF93C82F41E061E081E00E9431
S1130350B40040E062E081E00E94B40040E063E069
S113036081E00E94B4008C2F807F8BBB41E063E06E
S113037081E00E94B4008FEC97E00197F1F700C090
S1130380000040E063E081E00E94B400C295C07FB9
S1130390CBBB41E063E081E00E94B4008FEC97E0C6
S11303A00197F1F700C0000040E063E081E00E94A3
S11303B0B4008FE097E20197F1F700C00000CF91FD
S11303C008950F931F93CF938C01C0E0F801EC0FB5
S11303D0F11D8081882321F00E94A201CF5FF6CF16
S11303E0CF911F910F910895CF93DF9300D0CDB794
S11303F0DEB790E8998390EC9A83FE01E80FF11D33
S11304008181860F0F900F90DF91CF910C94190189
S11304100E9461010E9441000E9429020E94400240
S113042060E080E00E94F40180E690E00E94E10137
S11304308AE690E00E94E10160E081E00E94F4011C
S113044082E790E00E94E1010E944D000E94450273
S1130450FBCF41E064E081E00E944F0041E065E0B1
S113046081E00E944F0040E066E081E00E944F007E
S113047041E067E081E00E944F0080E58DB9089576
S113048040E064E081E00C94B4008FB9779BFECF28
S11304908FB10895549A80B5866880BD83E389B985
S11104A008955F9BFECF8CB10895F894FFCFB2
S11304AE77656C636F6D653E3E006C6564312D3E01
S11304BE31006C6564322D3E32202C6C6564332D14
S10704CE3E330000B5
S9030000FC
