S01700004D6963726F636F6E74726F6C6572312E737265630A
S11300000C942A000C943F000C943F000C943F0085
S11300100C943F000C943F000C943F000C943F0060
S11300200C943F000C943F000C943F000C943F0050
S11300300C943F000C943F000C943F000C943F0040
S11300400C943F000C943F000C943F000C943F0030
S11300500C943F0011241FBECFE5D8E0DEBFCDBF16
S113006010E0A0E6B0E0E0E7F5E002C005900D92F4
S1130070A03AB107D9F70E9445020C94B6020C9439
S11300800000442379F1413009F05FC0813079F0F8
S113009028F08230A9F08330E1F008952AB381E09A
S11300A090E001C0880F6A95EAF7822B2CC027B331
S11300B081E090E001C0880F6A95EAF7822B2EC098
S11300C024B381E090E001C0880F6A95EAF7822B9F
S11300D030C021B381E090E001C0880F6A95EAF74F
S11300E0822B32C0813089F028F08230C9F083300D
S11300F011F108952AB381E090E001C0880F6A9558
S1130100EAF7809582238ABB089527B381E090E0C3
S113011001C0880F6A95EAF78095822387BB08950A
S113012024B381E090E001C0880F6A95EAF78095D6
S1130130822384BB089521B381E090E001C0880F3D
S11301406A95EAF78095822381BB0895442379F167
S1130150413009F05FC0813079F028F08230A9F095
S11301608330E1F008952BB381E090E001C0880F63
S11301706A95EAF7822B2CC028B381E090E001C095
S1130180880F6A95EAF7822B2EC025B381E090E0B0
S113019001C0880F6A95EAF7822B30C022B381E050
S11301A090E001C0880F6A95EAF7822B32C0813053
S11301B089F028F08230C9F0833011F108952BB30F
S11301C081E090E001C0880F6A95EAF78095822368
S11301D08BBB089528B381E090E001C0880F6A9535
S11301E0EAF78095822388BB089525B381E090E0E7
S11301F001C0880F6A95EAF78095822385BB08952C
S113020022B381E090E001C0880F6A95EAF78095F7
S1130210822382BB0895813081F028F08230B9F0C6
S11302208330F9F008952BB381E090E001C0880F8A
S11302306A95EAF782278BBB089528B381E090E0A2
S113024001C0880F6A95EAF7822788BB089525B311
S113025081E090E001C0880F6A95EAF7822785BBA8
S1130260089522B381E090E001C0880F6A95EAF70F
S1130270822782BB0895CF93C82F40E061E081E0DC
S11302800E94A60040E062E081E00E94A60040E0F7
S113029063E081E00E94A6008BB39C2F907F8F7057
S11302A0892B8BBB41E063E081E00E94A6008FECC8
S11302B097E00197F1F700C0000040E063E081E0BF
S11302C00E94A6002BB330E1C39FC0011124922FDA
S11302D09F70892B8BBB41E063E081E00E94A60004
S11302E08FEC97E00197F1F700C0000040E063E075
S11302F081E00E94A6008FE097E20197F1F700C029
S11303000000CF91089541E061E081E00E94410046
S113031041E062E081E00E94410041E063E081E06D
S11303200E94410041E064E080E00E94410041E01D
S113033065E080E00E94410041E066E080E00E94C8
S1130340410041E067E080E00E9441002FEF80E738
S113035092E0215080409040E1F700C0000083E328
S11303600E943B0182E30E943B0188E20E943B0120
S11303708CE00E943B0181E00E943B0186E00E94E8
S11303803B0182E00C943B01CF93C82F41E061E034
S113039081E00E94A60040E062E081E00E94A600A5
S11303A040E063E081E00E94A6008C2F807F8BBB3D
S11303B041E063E081E00E94A6008FEC97E00197A2
S11303C0F1F700C0000040E063E081E00E94A60075
S11303D0C295C07FCBBB41E063E081E00E94A600F0
S11303E08FEC97E00197F1F700C0000040E063E074
S11303F081E00E94A6008FE097E20197F1F700C028
S11304000000CF9108950F931F93CF938C01C0E008
S1130410F801EC0FF11D8081882321F00E94C401B2
S1130420CF5FF6CFCF911F910F910895CF93DF93B4
S113043000D0CDB7DEB790E8998390EC9A83FE01A3
S1130440E80FF11D8181860F0F900F90DF91CF91FE
S11304500C943B0141E060E083E00C94410060E0D7
S113046083E00C940B0141E061E083E00C944100D3
S113047061E083E00C940B0141E062E083E00C94C2
S1130480410062E083E00C940B010E9483010E940E
S11304902A020E9433020E943C020E949A0280E6D1
S11304A090E00E940302C0E010E0D0E080E00E94EF
S11304B0B102813399F40E942F0268E080E00E9427
S11304C01602D11106C089E690E00E940302D1E031
S11304D0EDCF83E790E00E940302E7CF8233A1F4DB
S11304E00E94380260E081E00E941602111106C0E9
S11304F08CE790E00E94030211E0D8CF85E890E0F9
S11305000E94030210E0D2CF833381F60E9441029D
S113051069E081E00E941602C11106C08EE890E0F5
S11305200E940302C1E0C2CF86E990E00E94030268
S1130530C0E0BCCF40E064E081E00E94410040E0C4
S113054065E081E00E94410041E066E081E00E94B4
S1130550410040E067E081E00E94410080E48DB901
S113056008958FB9779BFECF8FB10895F894FFCF8C
S113057077656C636F6D653E00204C454431204FB8
S11305804E20004C454431204F4646004C454432F1
S1130590204F4E20004C454432204F4646004C45E7
S11305A04433204F4E004C454433204F4646000010
S9030000FC
