S01700004D6963726F636F6E74726F6C6572312E737265630A
S11300000C942A000C943F000C943F000C943F0085
S11300100C943F000C943F000C943F000C943F0060
S11300200C943F000C943F000C943F000C943F0050
S11300300C943F000C943F000C943F000C943F0040
S11300400C943F000C943F000C943F000C943F0030
S11300500C943F0011241FBECFE5D8E0DEBFCDBF16
S113006010E0A0E6B0E0E4EAF7E002C005900D92EB
S1130070A83BB107D9F70E94C9020C94D0030C9491
S113008000003E9A3F983D98329A309A319A329ABB
S11300903398379A0895369A349BFECF64B175B17C
S11300A044EF51E0649F9001659F300D749F300DC3
S11300B01124232F26952695FC012083118208956F
S11300C0442379F1413009F05FC0813079F028F0A0
S11300D08230A9F08330E1F008952AB381E090E002
S11300E001C0880F6A95EAF7822B2CC027B381E000
S11300F090E001C0880F6A95EAF7822B2EC024B3E2
S113010081E090E001C0880F6A95EAF7822B30C045
S113011021B381E090E001C0880F6A95EAF7822B51
S113012032C0813089F028F08230C9F0833011F177
S113013008952AB381E090E001C0880F6A95EAF738
S1130140809582238ABB089527B381E090E001C0A3
S1130150880F6A95EAF78095822387BB089524B3B4
S113016081E090E001C0880F6A95EAF780958223C8
S113017084BB089521B381E090E001C0880F6A95A3
S1130180EAF78095822381BB0895442379F14130B5
S113019009F05FC0813079F028F08230A9F0833013
S11301A0E1F008952BB381E090E001C0880F6A95D7
S11301B0EAF7822B2CC028B381E090E001C0880FBD
S11301C06A95EAF7822B2EC025B381E090E001C046
S11301D0880F6A95EAF7822B30C022B381E090E061
S11301E001C0880F6A95EAF7822B32C0813089F00A
S11301F028F08230C9F0833011F108952BB381E0E7
S113020090E001C0880F6A95EAF7809582238BBB42
S1130210089528B381E090E001C0880F6A95EAF759
S11302208095822388BB089525B381E090E001C0C6
S1130230880F6A95EAF78095822385BB089522B3D7
S113024081E090E001C0880F6A95EAF780958223E7
S113025082BB0895813081F028F08230B9F0833078
S1130260F9F008952BB381E090E001C0880F6A95FE
S1130270EAF782278BBB089528B381E090E001C0A0
S1130280880F6A95EAF7822788BB089525B381E031
S113029090E001C0880F6A95EAF7822785BB08952C
S11302A022B381E090E001C0880F6A95EAF78227C3
S11302B082BB0895CF93C82F40E061E081E00E94A3
S11302C0C50040E062E081E00E94C50040E063E0D8
S11302D081E00E94C5008BB39C2F907F8F70892B87
S11302E08BBB41E063E081E00E94C5008FEC97E0A6
S11302F00197F1F700C0000040E063E081E00E9454
S1130300C5002BB330E1C39FC0011124922F9F700D
S1130310892B8BBB41E063E081E00E94C5008FEC38
S113032097E00197F1F700C0000040E063E081E04E
S11303300E94C5008FE097E20197F1F700C000002A
S1130340CF91089541E061E081E00E94600041E0C6
S113035062E081E00E94600041E063E081E00E948D
S1130360600041E064E080E00E94600041E065E0FC
S113037080E00E94600041E066E080E00E9460004E
S113038041E067E080E00E9460002FEF80E792E0A8
S1130390215080409040E1F700C0000083E30E94B8
S11303A05A0182E30E945A0188E20E945A018CE0B9
S11303B00E945A0181E00E945A0186E00E945A017B
S11303C082E00C945A01CF93C82F41E061E081E0B0
S11303D00E94C50040E062E081E00E94C50040E068
S11303E063E081E00E94C5008C2F807F8BBB41E0DD
S11303F063E081E00E94C5008FEC97E00197F1F77C
S113040000C0000040E063E081E00E94C500C295A6
S1130410C07FCBBB41E063E081E00E94C5008FEC6C
S113042097E00197F1F700C0000040E063E081E04D
S11304300E94C5008FE097E20197F1F700C0000029
S1130440CF9108950F931F93CF938C01C0E0F801CF
S1130450EC0FF11D8081882321F00E94E301CF5F1E
S1130460F6CFCF911F910F910895CF93DF9300D0D2
S1130470CDB7DEB790E8998390EC9A83FE01E80F3C
S1130480F11D8181860F0F900F90DF91CF910C9415
S11304905A014F925F926F927F928F929F92AF9286
S11304A0BF92CF92DF92EF92FF924B015C0197FFD4
S11304B00BC08DE20E94E301B094A09490948094C8
S11304C0811C911CA11CB11C61E070E080E090E0F3
S11304D03AE0432E512C612C712C81149104A10417
S11304E0B104A9F0AAE0B0E09B01AC010E9494031E
S11304F06B017C01C501B401A30192010E94750343
S11305006C0D7D1D8E1D9F1D49015A01E6CF2AE009
S1130510C22ED12CE12CF12C62307105810591059C
S11305206CF0A70196010E94750349015A0180E30A
S1130530860F0E94E301B401C501EECFFF90EF9056
S1130540DF90CF90BF90AF909F908F907F906F90EF
S11305505F904F90089581E00C945A0141E060E06F
S113056083E00C94600060E083E00C942A0141E095
S113057061E083E00C94600061E083E00C942A0164
S113058041E062E083E00C94600062E083E00C945C
S11305902A01CF93DF9300D0CDB7DEB70E94A2012A
S11305A00E9471030E9455030E94AE020E94B7028A
S11305B00E94C0021A82198262E080E00E94350221
S11305C080E690E00E94220262E081E00E9435020F
S11305D08EE690E00E9422022FEF89E698E12150F6
S11305E080409040E1F700C000000E94AB02F12C73
S11305F000E010E080E00E946C03813399F40E94D3
S1130600B30260E080E00E943502111106C08CE75D
S113061090E00E94220211E0EDCF85E890E00E9474
S11306202202E7CF8233A1F40E94BC0268E080E09A
S11306300E943502011106C08EE890E00E94220259
S113064001E0D8CF87E990E00E94220200E0D2CFF7
S11306508333A9F40E94C50260E081E00E94350260
S1130660F11007C080EA90E00E942202FF24F39474
S1130670C1CF89EA90E00E942202F12CBBCF8433DF
S113068009F0B8CFCE0101960E94730369E081E0BE
S11306900E94350282EB90E00E94220269817A81F5
S11306A080E090E00E944902A5CF40E064E081E050
S11306B00E94600040E065E081E00E94600041E04B
S11306C066E081E00E94600040E067E081E00E9413
S11306D0600080E48DB908958FB9779BFECF8FB108
S11306E008950C9441000C944B00052E97FB1EF4C6
S11306F000940E948C0357FD07D00E949F0307FCBF
S113070003D04EF40C948C0350954095309521956C
S11307103F4F4F4F5F4F0895909580957095619529
S11307207F4F8F4F9F4F08950E94C103A59F900D47
S1130730B49F900DA49F800D911D11240895A1E2F2
S11307401A2EAA1BBB1BFD010DC0AA1FBB1FEE1F47
S1130750FF1FA217B307E407F50720F0A21BB30B92
S1130760E40BF50B661F771F881F991F1A9469F70E
S113077060957095809590959B01AC01BD01CF016A
S11307800895A29FB001B39FC001A39F700D811D66
S11307901124911DB29F700D811D1124911D089586
S10707A0F894FFCFF7
S11307A4772065206C2063206F206D206500494EFE
S11307B420534D41525420484F4D45004C4544313B
S11307C4204F4E20004C454431204F4646004C45B2
S11307D44432204F4E20004C454432204F464600BC
S11307E44C454433204F4E20004C454433204F465F
S10B07F4460054656D703D00E0
S9030000FC
